0100465619KNIGHT            SCOTT       M978-474-1882   978-474-1882                                                32 GREENWOOD ROAD             ANDOVER         MA  01810     USS85152075           MA  US2010072019660720RR 0100465619                                                                                                           VI    ************1224    20080930                          00000000SKBC ADVENTURES                                                                           USSFARNNNNNN                              DSBCKNIGHT@GMAIL.COM                    Y ZR20070731MEMB  AZR20070807MIRTHA01Y                    KNIGHT                  SCOTT           MR                                32 GREENWOOD ROAD             ANDOVER         MA  01810     US
0100466238BICE              JOE G       M425-313-2720   425-313-2720                                                1524 HILLSIDE DR SE           ISSAQUAH        WA  98027     USJG686MP             WA  US2009071719320717NW 239569713        RR 0100466238                                                                                       VI    ************1234    20090531                          00000000PACIFICA                      PO BOX 1848                   ISSAQUAH        WA            USIDARNNNNNN425-313-8801                  BICECOM@COMCAST.NET                     Y ZR20070802MEMB  APH20070807JCORRE00N                    BICE                    JOE G           MR                                PO BOX 1848                   ISSAQUAH        WA  98027     US
0100466253JEROME            MARK        M469-744-8385   469-744-8385                                                4021 DENDRON DRIVE            FLOWER MOUND    TX  75028     US16703861            TX  US2009082019560820AA 8LJ8572          RR 0100466253       WN 00000085339155                                                               AX    ***********1234     20090731                          00000000CCG SYSTEMS INC.              4021 DENDRON DRIVE            FLOWER MOUND    TX  75028     USCDARNNNYNN                              MJFISHING@VERIZON.NET                   Y ZR20070802MEMB  AZR20070808MEMB  01N                    JEROME                  MARK            MR                                4021 DENDRON DRIVE            FLOWER MOUND    TX  75028     US
0100466417MARSTEN           JOSEPH A    M571-239-7246   571-239-7637                                                8690 VILLAGE SQUARE           ALEXANDRIA      VA  22309     UST66107078           VA  US2011081719660817RR 0100466417                                                                                                           VI    ************1234    20080831                          00000000APOGEN TECHNOLOGIES INC.                                                                  USIDARNNNNNN720-862-2710                  DOLLARRENTAL@POEMTIERE.COM              Y ZR20070803MEMB  AZR20070808MEMB  01N                    MARSTEN                 JOSEPH A        MR                                PO BOX 15346                  ALEXANDRIA      VA  22309     US
0100466482MIRANDA           BERTRAND    M808-823-9205   808-823-9205                                                1724 PUU KAA ST               KAPAA           HI  96746     USH00782513           HI  US2011070419530704HA 107003178        RR 0100466482                                                                                       VI    ************1234    20071130                          00000000B PLUS RANCH                  PO BOX 255                    KILAUEA         HI  96754     USCDARNNNNNN                              BERTSMOWING@HAWAIIAN.NET                Y ZR20070803MEMB  AZR20070808MEMB  01N                    MIRANDA                 BERTRAND        MR                                PO BOX 255                    KILAUEA         HI  96754     US
0100466757SCHEPENS          GUY A       M+32486820490   015272502                                                   RYCKMANSSTRAAT 21             ANTWERPEN       AN  2020      BENB610247                BE2045042619650704DL 2552145191       RR 0100466757                                                                                       MC    ************1234    20090228                          00000000PERFECTPROOF EUROPE           WAYENBORGSTRAAT 4             MECHELEN            2800      BECDARNNNNNN                              GUY_SCHEPENS@TELENET.BE                 Y ZR20070804MEMB  AZR20070808MEMB  01N                    SCHEPENS                GUY A           MR                                RYCKMANSSTRAAT 21             ANTWERPEN           2020      BE
0100466773ADAMS             BRAD        M909-702-6978   909-702-6978                                                10571 RIDGE CANYON RD.        RANCHO CUCAMONGACA  91737     USN0596481            CA  US2008070519550705WN 00000205972454   RR 0100466773                                                                                       VI    ************1234    20090831                          00000000N/A                                                                                       USEDARNNNNNN                              BRADEB74@GMAIL.COM                      Y ZR20070804MEMB  APH20070807CSHE1D01Y                    ADAMS                   BRAD            MR                                10571 RIDGE CANYON RD.        RANCHO CUCAMONGACA  91737     US
0100466846SCOTT-DAVIS       ADRIAN R    M01274 617522   01274 617522                                                114 BRADFORD ROAD IDLE        BRADFORD            BD10 8TB  GBDAVIS602021AR9XR08      GB2016020919610202RR 0100466846                                                                                                           AX    ***********1234     20090228MC    ************1234    20110731RJ SCOTTDAVIS TRANSPORT                                                         BD10 8TB  GBCDARYNNYNN                              ASCOTTDAVISA@AOL.COM                    Y ZR20070804MEMB  AZR20070808MEMB  01N                    SCOTT-DAVIS             ADRIAN R        MR                                114 BRADFORD ROAD IDLE        BRADFORD            BD10 8TB  GB
0100466878MATHEUS           RAMON E     M58-212-2860126 58-212-2382789                ACHURI                        CALLE EL PARQUE SEBUCAN       CARACAS         MIRA1071      VEM320720571440       FL  US2007091419570424AA FXV0666          CO DK452086         RR 0100466878                                                                   VI    ************1234    20070930                          00000000CIMIENTOS BYA S.A.            AVE D CISNEROS ED. LANEX      CARACAS             1071      VEIDARNNNYNN58-212-2383578 58-212-2383578 RAMONMATHEUS@CANTV.NET                  Y ZR20070804MEMB  AZR20070808MEMB  01N                    MATHEUS                 RAMON E         MR                                CCS 7217  P.O. BOX 7217       MIAMI           FL  33102-5323US
0100467004NOMURA            EDWIN N     M808-597-8998   808-448-2878                  4                             738 CEDAR ST                  HONOLULU        HI  96814     USH00077093           HI  US2013062719440627RR 0100467004       HA 115104258                                                                                        VI    ************1234    20080930                          0000000015 CES/CECC                   75 H ST                       HICKAM AFB      HI  96853     USIDARNNNNNN                              EDNOMURA@HAWAII.RR.COM                  Y ZR20070805MEMB  AZR20070808MEMB  01N                    NOMURA                  EDWIN N         MR  4                             738 CEDAR ST                  HONOLULU        HI  96814     US
0100467037HWANG             GRACE       F617-417-0046   617-853-6410                  401                           925 JONES ST                  SF              CA  94109     USD7406894            CA  US2009062819780628RR 0100467037                                                                                                           MC    ************1234    20100228                          00000000SELF                                                                                      USCDARNNNNNN                              GJHWANG@HOTMAIL.COM                     Y ZR20070805MEMB  AZR20070808MEMB  00N                    HWANG                   GRACE           MS  401                           925 JONES ST                  SF              CA  94109     US
0100467153LEO               DERICK      M408-431-3166   408-431-3166                  APT 307                       6150 STUMP RD                 PARMA           OH  44130     USD9049549            CA  US2007091319730913RR 0100467153                                                                                                           VI    ************1234    20080330                          00000000NONE                                                                                        FDARNNNNNY                                                                      N FX20070806LB4572APM20070807CWARNK00N                    LEO                     DERICK          MR  APT 307                       6150 STUMP RD                 PARMA           OH  44130     US
0100467206NAVARRO           MARQUIS L   M605-393-7910   605-385-4342                                                4144 AGUSTA DR.               RAPID CITY      SD  57703     USD05201141           AZ  US2043011619780116UA 03198195579      RR 0100467206                                                                                       VI    ************1234    20090430                          00000000USAF                                                                                      USIDARNNNNNN                              MARQUIS.NAVARRO@OGN.AF.MIL              Y ZR20070806MEMB  AZR20070808MEMB  01N                    NAVARRO                 MARQUIS L       MR                                4144 AUGUSTA DR               RAPID CITY      SD  57703     US
0100467259GOLDMAN           KENNETH     M954-599-4533   954-599-4533                                                43115 ROYAL PALM AVE          MIAMI           FL  33140     USS042031367          CA  US2008020219600202RR 0100467259                                                                                                           AX    ***********1234     20080930                          00000000SELF                                                                                      USMVARNNNNNN                              KJG3231@AOL.COM                         Y ZR20070806MEMB  AZR20070808MEMB  00N                    GOLDMAN                 KENNETH         MR                                43115 ROYAL PALM AVE          MIAMI           FL  33140     US
0100467270DUDHEKER          SONALY      F714-995-5574   714-639-9860                                                137 S. GRAND AVENUE           ANAHEIM         CA  92804     USD2094056            CA  US2008080619740806RR 0100467270       UA 03198839867                                                                                      MC    ************1234    20080731                          00000000ARCHITECTS ORANGE             144 N. ORANGE STREET          ORANGE          CA  92866     USIDARNNNNNN714-639-5286   714-639-5286   CELESTE@ARCHITECTSORANGE.COM            Y ZR20070806MEMB  AZR20070808MEMB  01N                    DUDHEKER                SONALY          MRS                               144 N. ORANGE STREET          ORANGE          CA  92866     US
0100467428SJOBERG           BRIAN       M301-404-0765   202-404-7616                                                1640 HOWARD CHAPEL CT         CROFTON         MD  21114     USS16209801867300     MD  US2011041819750418CO UR324205         AA N6645H8          RR 0100467428       UA 03154439888      US 6N212E0          WN 00000034173392   VI    ************1234    20080930                          00000000NAVAL RESEARCH LAB                                                                        USEDARYNNNNN                              BRIAN_SJOBERG@YAHOO.COM                 Y ZR20070806MEMB  ARA2007080700051300N                    SJOBERG                 BRIAN           MR                                1640 HOWARD CHAPEL CT         CROFTON         MD  21114     US
0100467541HAUETER           PEGGY       F281-386-9971   S                                                           W53 N 109 MCKINLEY CT         CEDARBURG       WI  53012     US12661458            TX  US2012041919550419RR 0100467541                                                                                                           DS    ************1234    20120131                          00000000S                                                                                         USCDARNNNNNN                              PSHAUETER@YAHOO.COM                     Y ZR20070806MEMB  ARA20070807PDULCD00Y                    HAUETER                 PEGGY           MRS                               W 53 N109 MCKINLEY CT         CEDARBURG       WI  53012     US
0100467548WRIGHT            BILL        M941-725-0530   S                                                           4310 14TH ST CIRCLE WEST      PALMETTO        FL  34221     USW623060694550       FL  US2009121519691215RR 0100467548                                                                                                           AX    ***********1234     20111231                          00000000S                                                                                         USCDARNNNNNN                              BWRIGHT@GOPROLINK.COM                   Y ZR20070806MEMB  ARA20070807PDULCD00Y                    WRIGHT                  BILL            MR                                4310 14TH ST CIRCLE WEST      PALMETTO        FL  34221     US
0100467549GUMTAU            RICHARD O   M817-460-8310   S                                                           1703 PARK RIDGE TERR          ARLINGTON       TX  76012     US07417604            TX  US2008022819380228RR 0100467549                                                                                                           AX    ***********1234     20071031                          00000000S                                                                                         USCDARNNNNNN                              GUMTAU@SBCGLOBAL.NET                    Y ZR20070806MEMB  ARA20070807PDULCD00Y                    GUMTAU                  RICHARD O       MR                                1703 PARK RIDGE TERR          ARLINGTON       TX  76012     US
0100467551QUICK             MATT        M816-229-0164   816-524-3500                                                1016 SW 19TH STREET           BLUE SPRINGS    MO  64015     USS112257015          MO  US2012121619781216RR 0100467551                                                                                                           VI    ************1234    20090130                          00000000COFFMAN ASSOCIATES                                                                          FDARNNNNNN                                                                      N FX20070807LB4572A  20070807LB457200N                    QUICK                   MATT            MR                                1016 SW 19TH STREET           BLUE SPRINGS    MO  64015     US
0100467552PRIETO            JESUS A     M610-256-5674   610-256-5674                                                49 SHERMAN DR                 MALVERN         PA  19355     US23960743            PA  US2010012919630128RR 0100467552                                                                                                           AX    ***********1234     20090831                          00000000NOT AVAILABLE                                                                             USEDARNNNNNN                                                                      N PM20070807CWARNKAPM20070807CWARNK00N                    PRIETO                  JESUS A         MR                                49 SHERMAN DR                 MALVERN         PA  19355     US
